:020000040800F2
:10000000005000207D010008A1080008A308000896
:10001000A5080008A7080008A908000800000000BB
:10002000000000000000000000000000F10B0008CC
:10003000AB08000800000000910C0008AD080008A3
:10004000C5010008C5010008C5010008C501000878
:10005000C5010008C5010008C5010008C501000868
:10006000C5010008C5010008C5010008C501000858
:10007000C5010008C5010008C5010008C501000848
:10008000C5010008C5010008C5010008C501000838
:10009000C5010008C5010008C5010008C501000828
:1000A000C5010008B5080008C5010008C501000821
:1000B000C5010008C5010008C5010008C501000808
:1000C000C5010008C5010008C5010008C5010008F8
:1000D000C5010008C5010008C5010008C5010008E8
:1000E000C5010008C5010008C501000800000000A6
:1000F0000000000000000000000000000000000000
:0C01000000000000000000005FF808F1A3
:1001100010B5054C237833B9044B13B10448AFF341
:1001200000800123237010BD240000200000000087
:10013000F42900080C4B43B10C4810B50C49AFF33F
:1001400000800C48036823B910BD0A48036833B91E
:100150007047094B002BF7D0BDE810401847064BFD
:10016000002BF5D0184700BF00000000F42900085C
:10017000280000202400002000000000002103E0EF
:100180000B4B5B58435004310A480B4B42189A42C0
:10019000F6D30A4A02E0002342F8043B084B9A4295
:1001A000F9D300F08FFB02F001FC00F0BFF97047BB
:1001B000942A0008000000202400002024000020D1
:1001C00018180020FEE7000008B50349034801F0B5
:1001D00021FA034B187008BD980D0020080000207C
:1001E0009C0D00202DE9F04389B0324B9A6942F012
:1001F00010029A619A6902F010020092009A9A69BC
:1002000042F020029A619A6902F020020192019A5A
:100210009A6942F004029A619A6902F00402029219
:10022000029A9A6942F008029A619B6903F00803F6
:100230000393039B204F00224FF40051384601F0F6
:1002400021FCDFF8789000222221484601F01AFCB8
:10025000DFF86C8000220421404601F013FC4FF4CB
:100260000053049301260596002406940225079561
:1002700004A9384601F010FB222304930596069446
:10028000079504A9484601F007FB4FF42063049347
:100290000594069404A9384601F0FEFA0423049359
:1002A00005960694079504A9404601F0F5FA09B0B1
:1002B000BDE8F0830010024000100140000801403A
:1002C0000014014008B5074C0221204601F0E0FB74
:1002D0002021204601F0DCFB4FF4FA7000F097FD7E
:1002E000F1E700BF0008014008B5FFF76DFF0120EE
:1002F00000F08DFDFBE7000008B50268034B9A4251
:1003000000D008BD01F09EF9FBE700BF002C0140C2
:10031000FEE7000008B50B480B4B03604FF4E133D8
:10032000436000238360C36003610C2242618361E8
:10033000C36102F0D7FA00B908BD40F24D1103487D
:10034000FFF7E6FF3413002000440040482A00086D
:1003500008B50D480D4B03604FF4827343600023D2
:100360008360C360036143618361C361036243626D
:1003700083620A23C36202F075F800B908BD40F237
:100380002B110348FFF7C4FF04120020003800407F
:10039000482A000808B50B480B4B03604FF4E133C3
:1003A000436000238360C36003610C224261836168
:1003B000C36102F097FA00B908BD4FF49E7103487B
:1003C000FFF7A6FFF412002000380140482A000879
:1003D00008B50C480C4B0360102343600023836076
:1003E000C360036143618361C361036243628362EB
:1003F000C36201F039F900B908BD40F203110348A6
:10040000FFF786FFB012002000640040482A000871
:1004100008B50C480C4B03600C4B43600023836011
:10042000C3604FF48042026143618361C361036230
:1004300001F032FB00B908BD40F215110448FFF786
:1004400067FF00BF5C12002000580040A08601003A
:10045000482A000808B50B480B4B0360082343608B
:10046000022383600323C36000238361C3610362AB
:1004700001F0C6FB00B908BD40F25D110348FFF76B
:1004800047FF00BF74130020005C0040482A0008AA
:1004900000B595B001220A924FF480330B930021EE
:1004A0000C910E920222119212934FF4E0131393C7
:1004B0000AA801F027FC48BB0F23059302210691EF
:1004C000002307934FF480620892099305A801F076
:1004D0003FFEF8B9102301930023049301A801F013
:1004E00037FFD8B901F0F0FE0E4BA3FB00308009B6
:1004F00001F0ACF9042001F0BFF900220F214FF008
:10050000FF3001F065F915B05DF804FBD121064814
:10051000FFF7FEFEDE210448FFF7FAFEE421024861
:10052000FFF7F6FED34D6210482A000870B58AB076
:1005300001F076F8FFF7ACFFFFF754FEFFF7EAFE95
:10054000FFF706FFFFF726FFFFF742FFFFF760FF09
:10055000FFF780FF0E4C05AD26460FCE0FC5336862
:100560002B60002105A800F038FC0A4B18606D468E
:1005700014340FCC0FC523682B600021684600F0AF
:100580002CFC0221044801F083FA00F021FCFEE774
:100590000C2A0008001200200008014000B583B0BA
:1005A000234B9A6942F001029A619A6902F00102B2
:1005B0000092009ADA6942F08052DA61DB6903F056
:1005C00080530193019B032001F0F0F800221146B3
:1005D0006FF00B0001F0FCF8002211466FF00A00EA
:1005E00001F0F6F8002211466FF0090001F0F0F872
:1005F000002211466FF0040001F0EAF800221146D3
:100600006FF0030001F0E4F800220F216FF0010009
:1006100001F0DEF800220F214FF0FF3001F0D8F892
:10062000044A536823F0E063536003B05DF804FBB1
:1006300000100240000001400268194B9A4200D0AD
:10064000704710B586B003F5D633DA6942F0007210
:10065000DA61DB6903F000730193019B4FF480734F
:1006600002930023039304930E4C02A9204601F049
:1006700013F94FF4007302930223039303230593AA
:1006800002A9204601F008F9074A536823F4C04341
:1006900043F0E06343F48043536006B010BD00BFF5
:1006A00000640040000C01400000014002680F4B54
:1006B0009A4200D0704700B587B04FF44063029370
:1006C000122303930323059302A9094801F0E4F8D8
:1006D000084BDA6942F48002DA61DB6903F48003D3
:1006E0000193019B07B05DF804FB00BF0058004078
:1006F000000C0140001002400268144B9A4200D0E6
:10070000704710B586B003F5EC33DA6942F48042E5
:10071000DA61DB6903F480430193019B4FF4A0434A
:100720000293002303930493094C02A9204601F08D
:10073000B3F84FF42043029302230393032305935A
:1007400002A9204601F0A8F806B010BD003800400C
:10075000000C014010B586B00368244A934204D0CF
:10076000234A934222D006B010BD224B9A6942F42C
:1007700080429A619B6903F480430093009B4FF48D
:100780000073029302230393032305931A4C02A9D7
:10079000204601F081F84FF4806302930023039315
:1007A000049302A9204601F077F8DCE7114BDA69DF
:1007B00042F40032DA61DB6903F400330193019BF8
:1007C0000423029302230393032305930A4C02A9F3
:1007D000204601F061F80823029300230393049359
:1007E00002A9204601F058F8BDE700BF00380140DB
:1007F0000044004000100240000801400268094B1C
:100800009A4200D0704782B003F5DA33DA6942F4D5
:100810000002DA61DB6903F400030193019B02B07B
:10082000F0E700BF005C004000B589B0002201463F
:10083000192000F0CDFF192000F0FCFF144B9A693D
:1008400042F400629A619B6903F400630193019B87
:1008500002A903A801F05EFD01F04CFD0D4BA3FBC6
:1008600000239B0C013B0C480C4A026040F2E7322B
:10087000C260436000230361836001F03FFF18B151
:10088000012009B05DF804FB034801F02DFEF8E7F4
:100890000010024083DE1B43D4170020002C0140CF
:1008A0007047FEE7FEE7FEE7FEE7704708B500F099
:1008B000B7FA08BD08B5024801F026FE08BD00BF22
:1008C000D41700200F4B1A6842F001021A605968D1
:1008D0000D4A0A405A601A6822F0847222F480326B
:1008E0001A601A6822F480221A605A6822F4FE0202
:1008F0005A604FF41F029A604FF00062034B9A60F7
:10090000704700BF001002400000FFF800ED00E05B
:10091000024B01221A701878704700BF04000020B3
:10092000024B01221A701878704700BF04000020A3
:10093000002070470020704701207047124A12F0D3
:10094000070F1ED0D11D21F00701C1F540631344EC
:100950000A460E480260002141601344083B23F020
:1009600007030B48036059601960991A51601360BE
:10097000084B1960084B19604FF00042074B1A6092
:1009800070474FF44063E4E744000020500C00201F
:10099000400000204C0C0020480C0020440C00209B
:1009A00010B4124B1A6882421AD359685C18A042DC
:1009B00003D1406801445960184641684418A24276
:1009C00012D10B4C2468A2420CD0526811444160F1
:1009D0001A6812680260984200D0186010BC704714
:1009E0001346DFE70460F6E70260F4E7500C0020EE
:1009F0004000002070B5044600F00AFC3A4B1B682A
:100A0000BBB13A4B1B681C4263D1ACB1083414F043
:100A1000070F11D024F00704083404F007035BB17A
:100A20004FF0500383F31188BFF36F8FBFF34F8FE5
:100A3000FEE7FFF783FFE4E7002C4CD02C4B1B684C
:100A40009C424AD82B4B1D6801E02B4615466A682C
:100A5000944202D92A68002AF7D1234A12689542A3
:100A60003DD01E6808362A681A606B681B1B102B65
:100A700010D9281910F0070F08D04FF0500383F356
:100A80001188BFF36F8FBFF34F8FFEE743606C6039
:100A9000FFF786FF6A6816490B689B1A0B601649B8
:100AA00009688B4201D214490B60104B1B68134339
:100AB0006B6000232B6000F043FC16F0070F10D092
:100AC0004FF0500383F31188BFF36F8FBFF34F8F45
:100AD000FEE70026EFE70026EDE70026EBE700261D
:100AE000E9E7304670BD00BF40000020440C002004
:100AF000480C0020500C00204C0C002080B338B56E
:100B00000446A0F1080550F8042C164909680A4269
:100B100008D14FF0500383F31188BFF36F8FBFF3F9
:100B20004F8FFEE750F8080C40B14FF0500383F3AD
:100B30001188BFF36F8FBFF34F8FFEE722EA0102E8
:100B400044F8042C00F064FB54F8041C064A1368B3
:100B50000B4413602846FFF723FF00F0F1FB38BD7C
:100B6000704700BF440C0020480C00200B4B1B6852
:100B7000B3F1FF3F08D04FF0500383F31188BFF368
:100B80006F8FBFF34F8FFEE74FF0500383F3118851
:100B9000BFF36F8FBFF34F8FFEE700BF1C00002035
:100BA00006480068006880F3088862B661B6BFF343
:100BB0004F8FBFF36F8F00DF00BF000008ED00E034
:100BC0004FF0807340F8043C21F0010140F8081C0C
:100BD000034B40F80C3C40F8202C4038704700BFD5
:100BE0006D0B000800000000000000000000000085
:100BF000074B19680868B0E8F00F80F30988BFF365
:100C00006F8F4FF0000080F311884EF00D0E70478B
:100C1000600C00204FF0500383F31188BFF36F8FF7
:100C2000BFF34F8F0A4A136801331360012B0DD1B4
:100C3000084B1B6813F0FF0F08D04FF0500383F3ED
:100C40001188BFF36F8FBFF34F8FFEE7704700BF70
:100C50001C00002004ED00E0094B1B6843B94FF075
:100C6000500383F31188BFF36F8FBFF34F8FFEE7FD
:100C7000013B034A13600BB983F31188704700BF2F
:100C80001C00002000000000000000000000000028
:100C9000EFF30980BFF36F8F0D4B1A6820E9F00F57
:100CA00010602DE908404FF0500080F3118800F0EB
:100CB0002FFC4FF0000080F31188BDE80840196850
:100CC0000868B0E8F00F80F30988BFF36F8F7047B2
:100CD000600C002008B54FF0500383F31188BFF378
:100CE0006F8FBFF34F8F00F09BFA18B14FF0805217
:100CF000024B1A60002383F3118808BD04ED00E065
:100D0000064B1B68064AA2FB03239B09013B054ACD
:100D100013600722044B1A60704700BF00000020D8
:100D2000D34D621014E000E010E000E000B583B0A5
:100D30001F4B1A78D2B20192FF221A701B78DBB2D5
:100D40008DF803309DF8033003F05003194A1370F7
:100D50000722194B1A6009E0174A1368013B136018
:100D60009DF803305B00DBB28DF803309DF8033053
:100D700013F0800FF0D1104A13681B0203F4E063F4
:100D80001360019BDBB20A4A13700C4B1A6842F4E1
:100D900070021A601A6842F070421A60FFF7B0FFE2
:100DA0000022074B1A60FFF7FBFEFFF7DFFE00BFD4
:100DB00000E400E0580C00205C0C002020ED00E076
:100DC0001C000020842801D00330704700207047A9
:100DD00008B500F0DFF9002008BDF0B585B00F467A
:100DE000446805680669B0F90800FFF7EBFF03AB3C
:100DF000019300903B46B2B22946204600F098F994
:100E0000012802D1039805B0F0BD0020FBE708B52A
:100E1000034600B90123184600F010FB002008BD6E
:100E200008B500F0C1FB012801D0FFF753FF08BD52
:100E300000F1080343604FF0FF328260C36003613A
:100E400000230360704700230361704743684B60D1
:100E50009A688A609A6851609960086103680133F2
:100E60000360704730B40D68B5F1FF3F02D000F168
:100E7000080202E0026904E01A4653681C68A542B1
:100E8000FAD253684B6099608A60516008610368C8
:100E90000133036030BC7047036942688168916028
:100EA0008268416851605A68904205D00022026110
:100EB000186801381860704782685A60F6E70000C9
:100EC0000A4B1B681B684BB901234BB9074B1B68C6
:100ED000DB68DB685A68064B1A6070470023F4E74A
:100EE0004FF0FF32024B1A60704700BF640C0020C5
:100EF0003C0D002010B50446006BFFF7FFFD2046B7
:100F0000FFF7FCFD10BD2DE9F04780469946089D8E
:100F1000099F0A9C266B02F18042013A06EB820689
:100F200026F0070600230F2B07D8C856E21882F8D0
:100F30003400CA560AB10133F5E7002384F8433080
:100F4000062D00D90625E56265644FF0000AC4F855
:100F500048A0201DFFF777FF04F11800FFF773FF8B
:100F60002461C5F10705A5616462C4F84CA084F84A
:100F700050A04A4641463046FFF722FE206007B1A6
:100F80003C60BDE8F087000038B5002407E004EBC2
:100F9000840293000E481844FFF74AFF0134062CE0
:100FA000F5D90C4D2846FFF743FF0B4C2046FFF7C1
:100FB0003FFF0A48FFF73CFF0948FFF739FF0948A0
:100FC000FFF736FF084B1D60084B1C6038BD00BFA3
:100FD0006C0C0020100D0020240D0020440D00207A
:100FE000700D00205C0D0020640C0020680C0020B7
:100FF00010B50446FFF70EFE204A13680133136054
:101000001F4B1B68002B31D01E4B1B683BB91C4B80
:101010001B68DA6AE36A9A4201D8194B1C601A4AC3
:10102000136801331360E36A01229A401749086884
:1010300002430A6003EB83039A00211D1448104405
:10104000FFF704FFFFF708FE0E4B1B686BB10C4B5C
:101050001B68DA6AE36A9A4207D24FF080520D4B5E
:101060001A60BFF34F8FBFF36F8F10BD044B1C602E
:101070001368012BD3D1FFF787FFD0E7F80C0020CE
:10108000600C0020580D0020080D00200C0D0020E1
:101090006C0C002004ED00E070B504460E461D4BBC
:1010A0001D681D4B18680430FFF7F6FE50B91A4B47
:1010B0001B68DA6A012303FA02F218490B6823EA73
:1010C00002030B60B4F1FF3F13D02C44124B1B689A
:1010D0005C60A54216D8124B18680F4B1968043192
:1010E000FFF7C0FE0F4B1B689C4201D20D4B1C60EA
:1010F00070BD002EE9D0084B196804310A48FFF78B
:10110000A5FE70BD094B1868034B19680431FFF741
:10111000A9FE70BD840D0020600C00200C0D002085
:10112000640C00203C0D00205C0D0020680C0020A9
:101130002DE9F04385B006460F46154698469000C7
:10114000FFF758FC00B381465420FFF753FC0446D8
:10115000B0B1C0F83090CCB10023039302940D9B42
:1011600001930C9B009343462A4639463046FFF7CD
:10117000CAFE2046FFF73CFF012005B0BDE8F08322
:101180004846FFF7BBFCE6E70024E4E74FF0FF30FA
:10119000F3E7000000B583B0174B019300230093E1
:1011A000802216491648FFF7C3FF012805D0B0F189
:1011B000FF3F17D003B05DF804FB4FF0500383F3FB
:1011C0001188BFF36F8FBFF34F8F4FF0FF320D4B7E
:1011D0001A6001220C4B1A6000220C4B1A60FFF7B8
:1011E000A5FDE7E74FF0500383F31188BFF36F8F3E
:1011F000BFF34F8FFEE700BF380D0020842A0008A0
:10120000E91400083C0D0020580D0020840D00203A
:10121000024A136801331360704700BF040D0020B9
:10122000F8B53C4B1B68002B68D13B4B1D68013562
:101230001D60C5B9394B1B681B6843B14FF05003A3
:1012400083F31188BFF36F8FBFF34F8FFEE7334AED
:101250001168334B186810601960324A1368013303
:101260001360FFF72DFE304B1B689D423AD20024DD
:101270002E4B1B68DB6A03EB83039A002C4B9B58B5
:10128000012B40D901243EE00124244B1B681B683C
:1012900053B3002353BB214B1B68DB68DE687368C4
:1012A0009D4228D3371D3846FFF7F6FDB36A1BB1C0
:1012B00006F11800FFF7F0FDF36A01229A401D497C
:1012C000086802430A6003EB83039A003946184812
:1012D0001044FFF7BBFDF26A144B1B68DB6A9A42AD
:1012E000D2D2D2E70024D0E70123D3E74FF0FF3278
:1012F0000D4B1A60BCE70C4A1360B9E70E4A13683D
:101300000133136000240D4B1B6803B101242046F8
:10131000F8BD00BF040D0020840D0020640C0020E7
:10132000680C0020400D00203C0D0020600C0020C7
:101330006C0C00200C0D0020000D0020880D0020FA
:1013400038B5354B1B6843B94FF0500383F3118810
:10135000BFF36F8FBFF34F8FFEE7FFF75BFC2E4BA2
:101360001A68013A1A601B68002B50D12B4B1B687E
:1013700023B90024FFF770FC204638BD0024284B19
:101380001B681BB3264BDB68DC6804F11800FFF711
:1013900083FD251D2846FFF77FFDE36A01229A4061
:1013A0002049086802430A6003EB83039A00294638
:1013B0001D481044FFF74AFDE26A1C4B1B68DB6ABC
:1013C0009A42DCD301221A4B1A60D8E70CB1FFF71E
:1013D00077FD184B1C6874B9154B1B68CBB14FF0E7
:1013E0008052154B1A60BFF34F8FBFF36F8F0124EC
:1013F000C0E7013C07D0FFF713FF0028F9D0012216
:101400000B4B1A60F5E700220A4B1A60E4E7002450
:10141000B0E70024AEE700BF040D0020F80C002068
:10142000440D00200C0D00206C0C0020600C0020EE
:10143000880D0020000D002004ED00E010B5A8B1DB
:101440000446104B1B6843B14FF0500383F31188DF
:10145000BFF36F8FBFF34F8FFEE7FFF7D9FE002179
:101460002046FFF719FEFFF76BFF00E0002038B9B8
:101470004FF08052044B1A60BFF34F8FBFF36F8F52
:1014800010BD00BF040D002004ED00E0134B1B68ED
:1014900013B310B5FFF7BCFE114B1C68FFF750FFEC
:1014A00024B90E4B1B68002BF4D110BDFFF7B2FB23
:1014B0000B4BDB68DC68201DFFF7EEFC094A136864
:1014C000013B1360054A1368013B1360FFF7C4FB3F
:1014D0002046FFF70FFDE4E7704700BFFC0C00203B
:1014E000700D0020F80C002008B5FFF7CFFF064B69
:1014F0001B68012BF9D94FF08052044B1A60BFF3DF
:101500004F8FBFF36F8FF0E76C0C002004ED00E00D
:10151000204B1B68C3B900221F4B1A601F4B1B686E
:10152000B3FA83F3DBB2C3F11F0303EB83018A0039
:101530001B498A5862B94FF0500383F31188BFF3F7
:101540006F8FBFF34F8FFEE70122134B1A60704776
:1015500010B413489A00D418A10001444C68646880
:101560004C601A4491000831084484420AD003EBCD
:1015700083039A000A4B13445B68DA68094B1A60CC
:1015800010BC7047606803EB83029100044A0A4470
:101590005060ECE7040D0020880D00200C0D0020A9
:1015A0006C0C0020600C0020054B1B6823B1054B20
:1015B0001B681BB90220704701207047002070474C
:1015C000580D0020040D0020114B5B7ADBB2012B7B
:1015D00001D90120704730B40D4C657AEDB200237B
:1015E0006355657A04EB85056860607A2044027271
:1015F000627AD2B2501CC0B2607230320A703A22A3
:101600004A702F228A70CB70184630BC704700BFDA
:101610008C0D002008B50022FFF7D6FF08BD0000A2
:1016200008B5074A136843F010031360032000F065
:10163000BDF80020FFF7F8F8FEF7B0FF002008BD66
:1016400000200240034A1168034B1B780B441360CF
:10165000704700BF1418002020000020014B1868BC
:10166000704700BF14180020002800F09C8038B597
:10167000044690F83C3003B3022384F83C302268DF
:10168000136823F0020313602268136843F0010318
:101690001360FFF7E3FF054623685A6812F0010F55
:1016A00010D1FFF7DBFF401B0A28F5D9032084F88F
:1016B0003C00002384F83D3038BD80F83D30FEF713
:1016C000BBFFD9E75A6812F0010F5DD0A269012A69
:1016D00043D00022E169012941D022F04002216A71
:1016E00001293FD022F02002616A01293DD022F079
:1016F0001002A16A01293BD022F00802E16A012907
:1017000039D022F00402196821F0FC010A431A6062
:101710002168A368E2681343226913436269134393
:101720006268013A1343CB612268136823F0010316
:101730001360FFF793FF054623685A6812F0010F04
:101740001CD0FFF78BFF401B0A28F5D9032084F833
:101750003C00002384F83D3038BD8022BAE742F0D7
:101760004002BCE742F02002BEE742F01002C0E7B0
:1017700042F00802C2E742F00402C4E75B6813F0DB
:10178000010F08D0002300E0002333B9042384F8BC
:101790003C30012038BD0123F7E7002020640123FD
:1017A00084F83C3038BD012070470000074AD368F8
:1017B00023F4E0631B041B0C000200F4E0601843F8
:1017C00040F0BF6040F40030D060704700ED00E0B2
:1017D00030B4164BDB68C3F30223C3F10704042CB7
:1017E00028BF04241D1D062D17D9033B012505FA2A
:1017F00004F4013C2140994005FA03F3013B1340F6
:10180000194300280BDB0901C9B200F1604000F563
:10181000614080F8001330BC70470023E6E700F019
:101820000F000901C9B2024B1954F4E700ED00E0C2
:1018300014ED00E0420900F01F00012303FA00F05C
:10184000014B43F82200704700E100E00138B0F19D
:10185000807F0AD2064B5860F021064A82F8231096
:101860000020986007221A6070470120704700BF6F
:1018700010E000E000ED00E0042805D0054A136800
:1018800023F0040313607047024A136843F0040313
:101890001360704710E000E0F0B583B000263446D6
:1018A00071E0002D00F0A180012D00D1CE68FF2B4A
:1018B00000F2AF808646FF2B00F2AE80A500DEF876
:1018C00000200F27AF4022EA070206FA05F52A4357
:1018D000CEF800204A6812F0805F53D0634A9569C1
:1018E00045F001059561926902F001020192019AA9
:1018F000A508AF1C5E4A52F8272004F00307BF007A
:101900004FF00F0E0EFA07FE22EA0E02DFF870E12A
:10191000704500F088800EF5806E704500F086807E
:101920000EF5806E704500F084800EF5806E704577
:1019300076D04FF0040E0EFA07F73A4302354C4FBB
:1019400047F825204A6812F4803F75D0494D2A682F
:101950001A432A604A6812F4003F73D0454D6A6802
:101960001A436A604A6812F4801F71D0414DAA6818
:101970001A43AA604A6812F4001F6FD03D4DEA680E
:101980001343EB6001340F2C6ED80122A2400B6888
:1019900013409A42F6D14D68122D30D00BD8022D4B
:1019A0002AD07FF67EAF032D2FD0112D7FF47FAF8D
:1019B000CE6804367BE7304FBD4216D00CD92F4F8E
:1019C000BD4212D007F58037BD420ED0A7F5801773
:1019D000BD427FF46CAF08E0A7F58017BD4204D08C
:1019E00007F58037BD427FF462AF8D687DB1012D70
:1019F00008D0426108265AE7CE68083657E7CE6815
:101A00000C3654E70261082651E700264FE704260A
:101A10004DE700F1040E4EE7A4F10805AD004EE7D6
:101A20004FF0030E87E74FF0000E84E74FF0010EF2
:101A300081E74FF0020E7EE70E4D2A6822EA03028C
:101A40002A6087E70B4D6A6822EA03026A6089E729
:101A5000084DAA6822EA0302AA608BE7054DEA68EE
:101A600022EA0303EB608DE703B0F0BD00100240F3
:101A7000000001400004014000002110000031106E
:101A80000008014012B90904016170470161704703
:101A9000C3685940C1607047002800F0A28070B54B
:101AA000044690F83D30002B4FD0242384F83D307D
:101AB0002268136823F00103136000F00BFC6268D6
:101AC0004A4B9A4246D84A4B98428CBF0023012386
:101AD000002B40F08880474BA3FB00239B0C22681F
:101AE000536021686568414A954239D801330B62D9
:101AF000226861683D4B99423CD801384900B0FBEF
:101B0000F1F00130C0F30B00042838BF0420D0618D
:101B10002268E369216A0B43136022682369E16844
:101B20000B43936022686369A1690B43D360226809
:101B3000136843F00103136000202064202384F81D
:101B40003D30206384F83E0070BD80F83C30FEF7E5
:101B5000ADFDAAE7284B98428CBF00230123B7E7CD
:101B60004FF4967202FB03F3244AA2FB03239B0962
:101B70000133BCE7A568BDB9431E01EB4106B3FBC9
:101B8000F6F30133C3F30B03B3FA83F35B0933BBFF
:101B9000C5B9431E01EB4100B3FBF0F00130C0F3C7
:101BA0000B0040F40040B2E7431E01EB810606EB58
:101BB0008606B3FBF6F30133C3F30B03B3FA83F3E7
:101BC0005B09E4E7431E01EB810000EB8000B3FBFF
:101BD000F0F00130C0F30B0040F4404097E70120E3
:101BE00095E701207047012070BD00BFA08601006D
:101BF0007F841E0083DE1B43FF083D00D34D62102F
:101C0000002866D0F0B587B0044690F82934C3B1F7
:101C1000032384F82934206800F0A3FE254655F8F4
:101C2000107B6E460FCD0FC62B683360231D0ECB85
:101C3000384600F086FE0021206800F09CFE00235C
:101C400015E080F82834FEF7D9FDE1E704EB4312F4
:101C5000012182F8291082F828309386002182F829
:101C60002B109163D1639A1C5201A15001330E2BAA
:101C7000ECD9002312E004EB4312002182F8291270
:101C800082F82832938682F82B12C2F83812C2F8F2
:101C90003C1203F112025201A15001330E2BEAD97A
:101CA000254655F8107B6E460FCD0FC62B68336066
:101CB000231D0ECB384600F060FE002584F824502A
:101CC000012384F82934206800F06DFE284607B00F
:101CD000F0BD01207047000082B0084B1B68084A25
:101CE000A2FB03235B0A00FB03F0019000BF019BF2
:101CF0005A1E0192002BF9D102B07047000000205B
:101D0000D34D621070B582B00446036813F0010F22
:101D10003DD0AC4B5B6803F00C03042B2ED0A94BD9
:101D20005B6803F00C03082B23D06368B3F5803F96
:101D300051D0002B55D103F1804303F504331A68C9
:101D400022F480321A601A6822F480221A606368D2
:101D5000002B60D0FFF782FC05469A4B1B6813F4FA
:101D6000003F14D1FFF77AFC401B6428F5D903200B
:101D7000AFE1944B5B6813F4803FD6D0914B1B6866
:101D800013F4003F03D06368002B00F09F812368A9
:101D900013F0020F65D08B4B5B6813F00C0F4ED025
:101DA000884B5B6803F00C03082B43D02369002B9E
:101DB00079D00122844B1A60FFF750FC0546814B15
:101DC0001B6813F0020F65D1FFF748FC401B022887
:101DD000F5D903207DE17B4A136843F48033136017
:101DE000B5E7B3F5A02F09D0764B1A6822F48032FC
:101DF0001A601A6822F480221A60A8E703F180436F
:101E0000A3F53C331A6842F480221A601A6842F43F
:101E100080321A609BE7FFF721FC0546694B1B687F
:101E200013F4003FB3D0FFF719FC401B6428F5D929
:101E300003204EE1634B5B6813F4803FB6D1614BE6
:101E40001B6813F0020F04D02369012B01D001207D
:101E50003FE15C4A136823F0F803616943EAC10378
:101E60001360236813F0080F32D0A369002B6ED0E3
:101E70000122564B1A60FFF7F1FB0546514B5B6A96
:101E800013F0020F21D1FFF7E9FB401B0228F5D91F
:101E900003201EE14B4A136823F0F803616943EA0B
:101EA000C1031360DDE70022474B1A60FFF7D6FB42
:101EB0000546444B1B6813F0020FD2D0FFF7CEFB50
:101EC000401B0228F5D9032003E10120FFF704FF9E
:101ED000236813F0040F00F099803A4BDB6913F08C
:101EE000805F46D1374BDA6942F08052DA61DB69B4
:101EF00003F080530193019B0125354B1B6813F4BC
:101F0000807F38D0E368012B49D0002B4DD103F1FD
:101F1000804303F504331A6A22F001021A621A6A36
:101F200022F004021A62E368002B5DD0FFF796FBF3
:101F30000646244B1B6A13F0020F66D1FFF78EFB97
:101F4000801B41F288339842F3D90320C1E000227C
:101F50001E4B1A60FFF782FB05461A4B5B6A13F0B3
:101F6000020FB5D0FFF77AFB401B0228F5D90320FA
:101F7000AFE00025C1E7164A136843F4807313608D
:101F8000FFF76CFB0646124B1B6813F4807FB9D138
:101F9000FFF764FB801B6428F5D9032099E0094A08
:101FA000136A43F001031362BDE7052B12D0054B02
:101FB0001A6A22F001021A621A6A22F004021A62F4
:101FC000B1E700BF001002400000424280044242DC
:101FD00000700040414B1A6A42F004021A621A6A09
:101FE00042F001021A629EE7FFF738FB06463B4BC0
:101FF0001B6A13F0020F08D0FFF730FB801B41F281
:1020000088339842F3D9032063E0E5B9E369002BF4
:102010005ED0324A526802F00C02082A5BD0022BD2
:1020200017D000222E4B1A60FFF718FB04462B4BEB
:102030001B6813F0007F47D0FFF710FB001B02283E
:10204000F5D9032045E0254AD36923F08053D361B5
:10205000DCE70022224B1A60FFF700FB05461F4B0E
:102060001B6813F0007F06D0FFF7F8FA401B022828
:10207000F5D903202DE0236AB3F5803F1AD0174924
:102080004B6823F47413226A606A024313434B6063
:102090000122134B1A60FFF7E1FA04460F4B1B684D
:1020A00013F0007F0ED1FFF7D9FA001B0228F5D9F3
:1020B00003200EE0094A536823F40033A1680B4360
:1020C0005360DCE7002004E0002002E0012000E093
:1020D000002002B070BD0120FBE700BF00100240ED
:1020E0006000424210B586B0154C94E80F000DF127
:1020F000180E0EE90F00238AADF80430114B5B680F
:1021000003F00C02082A18D1C3F38342724412F878
:10211000102C13F4803F03D10B4800FB02F00DE0BC
:10212000084B5B68C3F34043734413F8143C0748FF
:1021300000FB02F0B0FBF3F000E0044806B010BD75
:10214000342A00080010024000093D0000127A0005
:10215000594B1B6803F007038B420CD2564A136895
:1021600023F007030B431360136803F0070399423E
:1021700001D00120704770B5036813F0020F06D03C
:102180004E4A536823F0F0038468234353600D469E
:102190000446036813F0010F52D04368012B23D08B
:1021A000022B28D0454A126812F0020F00F08280FC
:1021B00042494A6822F0030213434B60FFF74EFA8C
:1021C00006466368012B1DD0022B2AD03B4B5B686F
:1021D00013F00C0F34D0FFF741FA801B41F2883323
:1021E0009842F3D9032070BD344A126812F4003FBC
:1021F000DED1012070BD314A126812F0007FD7D1C4
:10220000012070BD2D4B5B6803F00C03042B17D02D
:10221000FFF724FA801B41F288339842F2D9032059
:1022200070BD264B5B6803F00C03082B08D0FFF74A
:1022300015FA801B41F288339842F2D9032070BD11
:102240001D4B1B6803F007039D420CD21A4A13680A
:1022500023F007032B431360136803F007039D4229
:1022600001D0012070BD236813F0040F06D0134A7B
:10227000536823F4E063E1680B435360236813F071
:10228000080F07D00D4A536823F46053216943EACD
:10229000C1035360FFF726FF084B5B68C3F30313CA
:1022A000074AD35CD840074B18600020FEF7BCFA01
:1022B000002070BD012070BD0020024000100240CF
:1022C0006C2A000800000020014B1868704700BF0E
:1022D0000000002008B5FFF7F7FF044B5B68C3F36D
:1022E0000223034AD35CD84008BD00BF001002405F
:1022F0007C2A000808B5FFF7E7FF044B5B68C3F3CF
:10230000C223034AD35CD84008BD00BF001002407E
:102310007C2A00080F2303600B4B5A6802F003026B
:1023200042605A6802F0F00282605A6802F4E06289
:10233000C2605B68DB0803F4E0630361034B1B6866
:1023400003F007030B6070470010024000200240BA
:1023500070B582B00446036813F0010F34D03E4BD1
:10236000DB6913F0805F48D13B4BDA6942F0805261
:10237000DA61DB6903F080530193019B0125374B40
:102380001B6813F4807F3AD0334B1B6A13F44073FD
:1023900011D0626802F4407293420CD02E4A136A44
:1023A00023F440702E4901260E6000260E60106254
:1023B00013F0010F37D1284A136A23F44073616880
:1023C0000B431362002D3FD1236813F0020F06D098
:1023D000214A536823F44043A1680B4353602368A8
:1023E00013F0100F35D01C4A536823F48003E168C2
:1023F0000B435360002002B070BD0025BFE7174AB1
:10240000136843F480731360FFF728F90646134BF3
:102410001B6813F4807FB7D1FFF720F9801B642875
:10242000F5D90320E7E7FFF719F906460A4B1B6ABF
:1024300013F0020FBFD1FFF711F9801B41F288336F
:102440009842F3D90320D6E7D36923F08053D361B0
:10245000BAE70020CFE700BF001002400070004044
:102460004004424200283CD010B504460023836259
:1024700090F85130002B31D0022384F8513022687B
:10248000136823F04003136022686368A1680B435C
:10249000E1680B4321690B4361690B43A16901F4B6
:1024A00000710B43E1690B43216A0B43A16A0B43A3
:1024B00013602268638B03F00403616A0B4353606B
:1024C0002368E26A1A612268D36923F40063D36146
:1024D00000206065012384F8513010BDFEF70CF92F
:1024E000CAE70120704770470268D36843F00103D0
:1024F000D3600268136843F0010313600020704743
:10250000704770477047704710B5044603681A69F2
:1025100012F0020F11D0DA6812F0020F0DD06FF036
:1025200002021A610123037703689B6913F0030F0A
:1025300070D0FFF7E6FF0023237723681A6912F0B3
:10254000040F12D0DA6812F0040F0ED06FF00402FC
:102550001A610223237723689B6913F4407F5FD0BD
:102560002046FFF7CEFF0023237723681A6912F075
:10257000080F12D0DA6812F0080F0ED06FF00802C0
:102580001A61042323772368DB6913F0030F4ED00D
:102590002046FFF7B6FF0023237723681A6912F05D
:1025A000100F12D0DA6812F0100F0ED06FF0100278
:1025B0001A61082323772368DB6913F4407F3DD039
:1025C0002046FFF79EFF0023237723681A6912F045
:1025D000010F03D0DA6812F0010F36D123681A69AF
:1025E00012F0800F03D0DA6812F0800F34D1236824
:1025F0001A6912F0400F03D0DA6812F0400F32D19E
:1026000023681A6912F0200F03D0DA6812F0200F45
:1026100030D110BDFFF774FF2046FFF773FF8AE744
:102620002046FFF76DFF2046FFF76CFF9BE7204633
:10263000FFF766FF2046FFF765FFACE72046FFF790
:102640005FFF2046FFF75EFFBDE76FF001021A61F2
:102650002046FDF751FEC1E76FF080021A61204667
:1026600000F066F8C3E76FF040021A612046FFF7FA
:102670004AFFC5E76FF020021A61204600F057F8C4
:10268000C7E7000003681C4A904227D0B0F1804F92
:1026900024D0A2F59432904220D002F5806290427C
:1026A0001CD0154A90421ED0B0F1804F1BD0A2F52D
:1026B0009432904217D002F58062904213D023F0FA
:1026C00080034A69134303608B68C3620B688362AB
:1026D000094B98420CD001234361704723F07003EB
:1026E0004A681343DDE723F44073CA681343E6E7FF
:1026F0000B690363EFE700BF002C0140A8B110B5E0
:10270000044690F83D305BB1022384F83D30211D32
:102710002068FFF7B7FF012384F83D30002010BD8B
:1027200080F83C30FFF7DFFEEEE70120704770478E
:10273000704700002DE9F04705460268136923F44D
:102740004053C1680B4313618368026913434269B4
:1027500013430168CA6822F4B05222F00C021343FA
:10276000CB600268536923F4407381690B43536162
:10277000D0F80080594B984557D0FFF7ABFD00EBE0
:10278000800000EB80006C68A400B0FBF4F4544FB0
:10279000A7FB043464092601FFF79CFD00EB8000D1
:1027A00000EB80006C68A400B0FBF4FAFFF792FD28
:1027B00000EB800000EB80006C68A400B0FBF4F438
:1027C000A7FB043464094FF0640909FB14A4240135
:1027D0003234A7FB0434640904F0F0043444FFF7F6
:1027E00079FD00EB800000EB80006E68B600B0FB66
:1027F000F6F6FFF76FFD00EB800000EB80006B68E2
:102800009B00B0FBF3F0A7FB0030400909FB106907
:102810004FEA091909F13209A7FB0937C7F3431732
:102820002744C8F80870BDE8F087FFF763FD00EBA8
:10283000800000EB80006C68A400B0FBF4F4284F2B
:10284000A7FB043464092601FFF754FD00EB800068
:1028500000EB80006C68A400B0FBF4FAFFF74AFDBF
:1028600000EB800000EB80006C68A400B0FBF4F487
:10287000A7FB043464094FF0640909FB14A4240184
:102880003234A7FB0434640904F0F0043444FFF745
:1028900031FD00EB800000EB80006E68B600B0FBFD
:1028A000F6F6FFF727FD00EB800000EB80006B6879
:1028B0009B00B0FBF3F3A7FB03235B0909FB136940
:1028C0004FEA091909F13209A7FB0937C7F3431782
:1028D0002744C8F80870BDE8F08700BF0038014001
:1028E0001F85EB5158B310B5044690F839300BB33F
:1028F000242384F839302268D36823F40053D3604A
:102900002046FFF717FF2268136923F490431361F1
:102910002268536923F02A0353612268D36843F481
:102920000053D3600020E063202384F8393084F81A
:102930003A3010BD80F83830FDF70CFFD8E70120A1
:10294000704784B001A880E80E00002004B07047F2
:10295000B0F840309BB243F43F43A0F84030002031
:102960007047B0F8403023F474535B045B0CA0F85C
:102970004030002070470020704784B038B505AC67
:1029800084E80E000123A0F840300024A0F8404065
:10299000A0F84440A0F85040FFF7DAFF2046BDE819
:1029A000384004B0704700207047000070B5002523
:1029B0000C4E0D4CA41BA410A54209D100F01AF82E
:1029C00000250A4E0A4CA41BA410A54205D170BDD7
:1029D00056F8253098470135EEE756F825309847E8
:1029E0000135F2E78C2A00088C2A00088C2A00089E
:1029F000902A0008F8B500BFF8BC08BC9E46704796
:0C2A0000F8B500BFF8BC08BC9E4670474B
:102A0C00602A0008E9020008000000000000000035
:102A1C0080000000582A0008C502000800000000D1
:102A2C00000000006400000002030405060708090A
:102A3C000A0B0C0D0E0F1010010200002E2E2F533E
:102A4C0072632F6D61696E2E63000000626C696E9B
:102A5C006B00000064656661756C745461736B0087
:102A6C000000000000000000010203040607080932
:102A7C00000000000102030449444C450000000022
:042A8C003501000808
:042A90001101000828
:102A940000A24A04010000001109000821090008ED
:102AA400310900083509000839090008AAAAAAAAA8
:042AB400010000001D
:040000050800017D71
:00000001FF
